:100000000C942A000C9420020C944D020C947A0259
:100010000C943C000C943C000C943C000C943C0070
:100020000C943C000C943C000C943C000C943C0060
:100030000C943C000C943C000C943C000C943C0050
:100040000C943C000C943C000C943C000C943C0040
:100050000C943C0011241FBECFE5D8E0DEBFCDBF1D
:1000600020E0A0E6B0E001C01D92A636B207E1F79D
:100070000E9443000C94A7020C94000080E066E00C
:100080000E944601089580E065E041E00E946B0017
:1000900080E066E041E00E946B0083E062E040E0C7
:1000A0000E946B000E94850180E06EE370E00E9478
:1000B0000C0280E061E00E94C20180E00E94EE013B
:1000C0000E94A80180E065E00E94460188EE93E06E
:1000D0000E948D01F7CF843008F0D1C0683008F05D
:1000E000CEC0433008F0CBC0442309F046C0813075
:1000F000B9F0813030F0823011F1833009F0C2C0A4
:100100002DC08AB321E030E002C0220F331F6A9570
:10011000E2F7209582238ABB8BB328232BBBB2C086
:1001200087B321E030E002C0220F331F6A95E2F767
:100130002095822387BB88B3282328BBA3C084B320
:1001400021E030E002C0220F331F6A95E2F72095CC
:10015000822384BB85B3282325BB94C081B321E0CF
:1001600030E002C0220F331F6A95E2F72095822308
:1001700081BB82B3282322BB85C04130B1F58130D9
:1001800099F0813030F08230D1F0833009F07AC0BC
:1001900021C02AB381E090E002C0880F991F6A95C0
:1001A000E2F7282B2ABB6EC027B381E090E002C0A3
:1001B000880F991F6A95E2F7282B27BB63C024B3E9
:1001C00081E090E002C0880F991F6A95E2F7282B22
:1001D00024BB58C021B381E090E002C0880F991F72
:1001E0006A95E2F7282B21BB4DC08130C1F08130E8
:1001F00030F0823021F1833009F044C030C03AB38E
:1002000081E090E002C0880F991F6A95E2F7282FDD
:10021000209523232ABB2BB3822B8BBB33C037B350
:1002200081E090E002C0880F991F6A95E2F7282FBD
:100230002095232327BB28B3822B88BB23C034B34C
:1002400081E090E002C0880F991F6A95E2F7282F9D
:100250002095232324BB25B3822B85BB13C031B348
:1002600081E090E002C0880F991F6A95E2F7282F7D
:100270002095232321BB22B3822B82BB03C021E024
:1002800030E002C020E030E0C90108958430C8F5B4
:100290006830B8F58130A1F0813028F08230D9F093
:1002A000833059F423C02BB381E090E002C0880F63
:1002B000991F6A95E2F728272BBB20E030E023C086
:1002C00028B381E090E002C0880F991F6A95E2F799
:1002D000282728BBF2CF25B381E090E002C0880F29
:1002E000991F6A95E2F7282725BBE7CF22B381E063
:1002F00090E002C0880F991F6A95E2F7282722BB79
:10030000DCCF21E030E0C901089588E083BF8CE7AD
:100310008CBF12BE80E090E00895AC0188B7826087
:1003200088BF83B7836083BF20E030E008C008B691
:1003300001FEFDCF88B7826088BF2F5F3F4F241733
:100340003507A8F383B7887F83BF80E090E00895E6
:10035000789480E090E00895833018F021E030E058
:100360000FC0813039F0813018F0823039F404C088
:1003700080E403C080E801C080E28ABF20E030E072
:10038000C9010895982F833028F5643018F581301D
:1003900049F0813018F08230B9F40CC085B7637031
:1003A0008C7F05C085B7660F660F6C70837F862BC8
:1003B00085BF0AC0623019F484B78F7B04C06330F4
:1003C00049F484B7806484BF892F0E94AC0120E087
:1003D00030E002C021E030E0C90108951F93182FDA
:1003E000833018F021E030E014C00E94AC011130DD
:1003F00041F0113018F0123051F406C08BB7806410
:1004000005C08BB7806802C08BB780628BBF20E0CD
:1004100030E0C9011F910895833070F461157105B2
:1004200059F0E82FF0E0EE0FFF1FE05AFF4F718305
:10043000608320E030E002C021E030E0C90108958F
:100440001F920F920FB60F9211242F933F934F9349
:100450005F936F937F938F939F93AF93BF93EF932C
:10046000FF938091600090916100892B29F0E091C9
:100470006000F09161000995FF91EF91BF91AF91FC
:100480009F918F917F916F915F914F913F912F91AC
:100490000F900FBE0F901F9018951F920F920FB6DE
:1004A0000F9211242F933F934F935F936F937F93FA
:1004B0008F939F93AF93BF93EF93FF9380916200CD
:1004C00090916300892B29F0E0916200F091630024
:1004D0000995FF91EF91BF91AF919F918F917F917E
:1004E0006F915F914F913F912F910F900FBE0F90A1
:1004F0001F9018951F920F920FB60F9211242F93F1
:100500003F934F935F936F937F938F939F93AF939B
:10051000BF93EF93FF938091640090916500892BC6
:1005200029F0E0916400F09165000995FF91EF9149
:10053000BF91AF919F918F917F916F915F914F91FB
:100540003F912F910F900FBE0F901F901895F89428
:02055000FFCFDB
:00000001FF
