:100000000C942A000C94EA010C9417020C944402FC
:100010000C9447000C9447000C9447000C94470044
:100020000C9447000C9447000C9447000C94470034
:100030000C9447000C9447000C9447000C94470024
:100040000C9447000C9447000C9447000C94470014
:100050000C94470011241FBECFE5D8E0DEBFCDBF12
:1000600010E0A0E6B0E0EEE4F5E002C005900D92ED
:10007000A036B107D9F720E0A0E6B0E001C01D929C
:10008000A636B207E1F70E9449000C94A5020C9431
:1000900000000E944F008FEF0E947300FFCF41E0ED
:1000A00063E082E00E948E0040E063E082E00E9414
:1000B000690141E064E082E00E948E0041E065E079
:1000C00082E00E948E0040E064E082E00E946901CC
:1000D00040E065E082E00E94690181E00E947102D7
:1000E00080E090E00895CF93DF930F92CDB7DEB715
:1000F0001982BE016F5F7F4F0E94960241E063E06C
:1001000082E00E94690140E063E082E00E946901B0
:1001100080E090E00F90DF91CF910895843008F057
:10012000D1C0683008F0CEC0433008F0CBC04423C3
:1001300009F046C08130B9F0813030F0823011F1E1
:10014000833009F0C2C02DC08AB321E030E002C084
:10015000220F331F6A95E2F7209582238ABB8BB367
:1001600028232BBBB2C087B321E030E002C0220FAE
:10017000331F6A95E2F72095822387BB88B3282333
:1001800028BBA3C084B321E030E002C0220F331F9C
:100190006A95E2F72095822384BB85B3282325BB8B
:1001A00094C081B321E030E002C0220F331F6A9572
:1001B000E2F72095822381BB82B3282322BB85C02E
:1001C0004130B1F5813099F0813030F08230D1F09A
:1001D000833009F07AC021C02AB381E090E002C0E8
:1001E000880F991F6A95E2F7282B2ABB6EC027B3A8
:1001F00081E090E002C0880F991F6A95E2F7282BF2
:1002000027BB63C024B381E090E002C0880F991F30
:100210006A95E2F7282B24BB58C021B381E090E017
:1002200002C0880F991F6A95E2F7282B21BB4DC0A9
:100230008130C1F0813030F0823021F1833009F01B
:1002400044C030C03AB381E090E002C0880F991FEB
:100250006A95E2F7282F209523232ABB2BB3822B04
:100260008BBB33C037B381E090E002C0880F991F89
:100270006A95E2F7282F2095232327BB28B3822BEA
:1002800088BB23C034B381E090E002C0880F991F7F
:100290006A95E2F7282F2095232324BB25B3822BD0
:1002A00085BB13C031B381E090E002C0880F991F75
:1002B0006A95E2F7282F2095232321BB22B3822BB6
:1002C00082BB03C021E030E002C020E030E0C90181
:1002D0000895843008F077C0683008F074C0423068
:1002E00008F071C04130B1F5813099F0813030F0C3
:1002F0008230D1F0833009F069C021C02BB381E096
:1003000090E002C0880F991F6A95E2F7282B2BBB5B
:100310005DC028B381E090E002C0880F991F6A9504
:10032000E2F7282B28BB52C025B381E090E002C041
:10033000880F991F6A95E2F7282B25BB47C022B387
:1003400081E090E002C0880F991F6A95E2F7282BA0
:1003500022BB3CC0813099F0813028F08230D9F046
:100360008330A1F524C02BB381E090E002C0880F58
:10037000991F6A95E2F7809582238BBB27C028B32B
:1003800081E090E002C0880F991F6A95E2F780959E
:10039000822388BB1BC025B381E090E002C0880F98
:1003A000991F6A95E2F78095822385BB0FC022B31F
:1003B00081E090E002C0880F991F6A95E2F780956E
:1003C000822382BB03C021E030E002C020E030E0A5
:1003D000C90108951F920F920FB60F9211242F9307
:1003E0003F934F935F936F937F938F939F93AF93BD
:1003F000BF93EF93FF938091600090916100892BF0
:1004000029F0E0916000F09161000995FF91EF9172
:10041000BF91AF919F918F917F916F915F914F911C
:100420003F912F910F900FBE0F901F9018951F9224
:100430000F920FB60F9211242F933F934F935F9318
:100440006F937F938F939F93AF93BF93EF93FF939C
:100450008091620090916300892B29F0E091620005
:10046000F09163000995FF91EF91BF91AF919F913A
:100470008F917F916F915F914F913F912F910F904D
:100480000FBE0F901F9018951F920F920FB60F92EC
:1004900011242F933F934F935F936F937F938F9389
:1004A0009F93AF93BF93EF93FF93809164009091DC
:1004B0006500892B29F0E0916400F09165000995B1
:1004C000FF91EF91BF91AF919F918F917F916F912C
:1004D0005F914F913F912F910F900FBE0F901F9002
:1004E0001895CF93C82F81E090E0C430E8F441E044
:1004F00064E081E00E948E0041E065E081E00E94BE
:100500008E0041E067E081E00E948E0040E066E0FE
:1005100081E00E948E0041E064E081E00E94690178
:10052000C066CDB980E090E0CF9108956115710566
:1005300049F08FB9779BFECF8FB1FB01808380E0BC
:0E05400090E0089581E090E00895F894FFCFD8
:00000001FF
